:020000040000FA
:0400000044EF29F0B0
:10527C0012003EC001F03FC002F0120000EE3AF006
:10528C000C0EEE6AE806FDE1000EF86E00012AEF46
:10529C0037F00E6E000E0B6E000E0A6E0E50C4EC44
:1052AC002AF0000E026E020E016EAAEC29F012001A
:1052BC000E6E000E0B6E010E0A6E0E50C4EC2AF030
:1052CC00000E026E500E016E3EEC29F012000C6EB8
:1052DC000CC007F0086A1BEC2AF0000E026E1D0EC3
:1052EC00016E0AC003F00BC004F07CEC32F0FAEC57
:1052FC0029F01200000E026E080E016E000E046EF4
:10530C00010E036E7CEC32F0000E026E080E016E84
:10531C00000E046E000E036E7CEC32F01200000ED8
:10532C00026E1F0E016E000E046E010E036E7CECFD
:10533C0032F0000E026E1F0E016E000E046E000E97
:10534C00036E7CEC32F01200000E056E000E046E43
:10535C00B2EF29F0044A052A0150045C0550800A7A
:10536C00036E0250800A0358D8A0BFEF29F0C1EF9A
:10537C0029F0B0EF29F01200DBEC29F0000E026EE0
:10538C000A0E016E000E046E010E036EA3EC33F0D8
:10539C00000E026E090E016E000E046E010E036EFD
:1053AC00A3EC33F00C0EC16E1200000E026E1F0E39
:1053BC00016E000E046E000E036EA3EC33F0000EB3
:1053CC00026E080E016E000E046E000E036EA3EC4E
:1053DC0033F0000E026E1E0E016E000E046E000EF7
:1053EC00036EA3EC33F01200000E026E1C0E016E65
:1053FC00000E046E010E036E7CEC32F0000E026E99
:10540C00050E016E3EEC29F0000E026E1C0E016EB4
:10541C00000E046E000E036E7CEC32F0000E026E79
:10542C00050E016E3EEC29F01200000E026E080E05
:10543C00016E000E046E000E036E7CEC32F0000E5A
:10544C00096E000E026E1E0E016E800E0714036EA6
:10545C00046A7CEC32F080EC29F0D89007360836E0
:10546C00092A070E09643DEF2AF03FEF2AF027EFD7
:10547C002AF095EC29F01200000E146E000E136E3B
:10548C0058EF2AF013500F24116E14501020126E86
:10549C0011C0F6FF12C0F7FF0800F5505EEC29F0C2
:1054AC00134A142A13500F24116E14501020126E2C
:1054BC0011C0F6FF12C0F7FF0800F5500009D8A480
:1054CC006AEF2AF06CEF2AF048EF2AF01200000E77
:1054DC00026E180E016E000E046E000E036EA3EC2D
:1054EC0033F0000E026E190E016E000E046E000EEB
:1054FC00036EA3EC33F0000E026E1A0E016E000E5A
:10550C00046E000E036EA3EC33F0000E026E1B0E45
:10551C00016E000E046E000E036EA3EC33F0DBEC98
:10552C0029F012000E6E0D50D8A49FEF2AF0A1EFB7
:10553C002AF0A3EF2AF00EC043F00D04D8A4A9EF73
:10554C002AF0ABEF2AF0ADEF2AF00EC042F0020EBB
:10555C000D18D8A4B4EF2AF0B6EF2AF0B8EF2AF061
:10556C000EC041F0030E0D18D8A4BFEF2AF0C1EF06
:10557C002AF0C3EF2AF00EC040F012000D6E0DC0E1
:10558C000CF00C3A0F0E0C160C50076E086A1BEC44
:10559C002AF0000E026E1D0E016E0AC003F00BC045
:1055AC0004F07CEC32F0FAEC29F00DC00CF00F0E8C
:1055BC000C160C50076E086A1BEC2AF0000E026EDB
:1055CC001D0E016E0AC003F00BC004F07CEC32F02F
:1055DC00FAEC29F012000A500B10D8B4F8EF2AF0AC
:1055EC00FAEF2AF01EEF2BF0010E0C6E02EF2BF0EF
:1055FC00D8900A360B360C2A0BAE07EF2BF009EFBE
:10560C002BF0FEEF2AF00A50085C0B500958D8A07A
:10561C0012EF2BF014EF2BF018EF2BF00A50085E62
:10562C000B50095AD8900B320A320C2E09EF2BF082
:10563C0008C008F009C009F01200000E066E000E3A
:10564C00056E03500410D8B42EEF2BF030EF2BF076
:10565C0058EF2BF0010E076E38EF2BF0D890033675
:10566C000436072A04AE3DEF2BF03FEF2BF034EF5E
:10567C002BF0D890053606360350015C04500258C6
:10568C00D8A04BEF2BF04DEF2BF052EF2BF003503B
:10569C00015E0450025A0580D89004320332072E62
:1056AC003FEF2BF005C001F006C002F01200000E17
:1056BC00056E000E046E04C001F0010E026E000EA9
:1056CC00036E012A6DEF2BF0D89002360336012EB3
:1056DC006AEF2BF03E5002163F5003160250031097
:1056EC00D8B47BEF2BF07DEF2BF087EF2BF0CB0EAC
:1056FC000424F66E7D0E0520F76E0800F55098EF29
:10570C002BF0044A052A05BE95EF2BF0055009E154
:10571C000A0E045CD8A095EF2BF097EF2BF061EFFD
:10572C002BF0000E1200036EABEF2BF0700EE0EFBF
:10573C002BF0500EE0EF2BF04C0EE0EF2BF0540E54
:10574C00E0EF2BF0530EE0EF2BF00350016E026AEA
:10575C000250000AD8B4B5EF2BF0E0EF2BF001505B
:10576C00410AD8B4A5EF2BF0030AD8B4A2EF2BF062
:10577C00060AD8B4A2EF2BF0080AD8B49FEF2BF08E
:10578C001E0AD8B4A5EF2BF0010AD8B4A8EF2BF061
:10579C00060AD8B49CEF2BF00D0AD8B49CEF2BF072
:1057AC00010AD8B49FEF2BF02A0AD8B4A8EF2BF03B
:1057BC00E0EF2BF01200000E0D6E000E046E0A0EC0
:1057CC00036E0FC001F010C002F023EC2BF001C0EF
:1057DC0008F002C009F0000E0B6E0A0E0A6EF1EC16
:1057EC002AF0085098EC2AF0010E0D6E0FC008F04C
:1057FC0010C009F0000E0B6E0A0E0A6EF1EC2AF0C6
:10580C00085098EC2AF0020E0D6E000E046E0A0E73
:10581C00036E11C001F012C002F023EC2BF001C09A
:10582C0008F002C009F0000E0B6E0A0E0A6EF1ECC5
:10583C002AF0085098EC2AF0030E0D6E11C008F0F7
:10584C0012C009F0000E0B6E0A0E0A6EF1EC2AF073
:10585C00085098EC2AF0DEEC2FF01200000E026ECD
:10586C001C0E016E000E046E000E036EA3EC33F0E2
:10587C00000E026E1D0E016E000E046E000E036E05
:10588C00A3EC33F0DBEC29F0000E026E0F0E016E70
:10589C00AAEC29F0000E0B6E000E0A6E030E6DECD6
:1058AC0029F0000E026E050E016EAAEC29F0000E16
:1058BC000B6E000E0A6E030E6DEC29F0000E026EDC
:1058CC00A00E016E3EEC29F0000E0B6E000E0A6E5F
:1058DC00030E6DEC29F0000E026EA00E016E3EEC74
:1058EC0029F0000E0B6E000E0A6E020E6DEC29F004
:1058FC00000E026E0A0E016EAAEC29F0280E4FEC77
:10590C0029F00C0E4FEC29F0010E4FEC29F012008F
:10591C00800E4FEC29F0E60E0F6E7D0E106E42ECF1
:10592C002AF0C00E4FEC29F0D50E0F6E7D0E106EC6
:10593C0042EC2AF0000E156E000E166E000E176E5D
:10594C00000E186E15C001F016C002F017C003F05F
:10595C0018C004F0000E056EC00E066E5A0E076ECF
:10596C00450E086E84EC2DF0D8A0BFEF2CF0C1EFE3
:10597C002CF0C3EF2CF0F6EF2CF015C001F016C094
:10598C0002F017C003F018C004F0000E056E000EF4
:10599C00066E800E076E3F0E086ECAEC34F001C026
:1059AC0015F002C016F003C017F004C018F015C0B3
:1059BC0001F016C002F017C003F018C004F0000E7E
:1059CC00056EC00E066E5A0E076E450E086E84EC00
:1059DC002DF0D8A0F4EF2CF0F6EF2CF0C3EF2CF058
:1059EC00800E4FEC29F01B0E0F6E7F0E106E42ECEA
:1059FC002AF0C00E4FEC29F0690E0F6E7F0E106E60
:105A0C0042EC2AF01200800E4FEC29F0F70E0F6ECC
:105A1C007D0E106E42EC2AF0C00E4FEC29F0D50E24
:105A2C000F6E7D0E106E42EC2AF0000E156E000EFD
:105A3C00166E000E176E000E186E15C001F016C013
:105A4C0002F017C003F018C004F0000E056EC00E73
:105A5C00066E5A0E076E450E086E84EC2DF0D8A01B
:105A6C003AEF2DF03CEF2DF03EEF2DF071EF2DF0D5
:105A7C0015C001F016C002F017C003F018C004F0F6
:105A8C00000E056E000E066E800E076E3F0E086E41
:105A9C00CAEC34F001C015F002C016F003C017F0C8
:105AAC0004C018F015C001F016C002F017C003F0C6
:105ABC0018C004F0000E056EC00E066E5A0E076E6E
:105ACC00450E086E84EC2DF0D8A06FEF2DF071EF21
:105ADC002DF03EEF2DF0800E4FEC29F00D0E0F6ED9
:105AEC007F0E106E42EC2AF0C00E4FEC29F0750EB2
:105AFC000F6E7F0E106E42EC2AF01200000E011495
:105B0C00096E000E02140A6E800E03140B6E7F0ECB
:105B1C0004140C6E09500A100B100C10D8A499EF39
:105B2C002DF09BEF2DF0A3EF2DF0000E016E000E6B
:105B3C00026E000E036E000E046E000E0514096E4C
:105B4C00000E06140A6E800E07140B6E7F0E0814DE
:105B5C000C6E09500A100B100C10D8A4B8EF2DF0D5
:105B6C00BAEF2DF0C2EF2DF0000E056E000E066E92
:105B7C00000E076E000E086E04AEC7EF2DF0C9EFD5
:105B8C002DF0D2EF2DF0016C021ED8B0022A031EAC
:105B9C00D8B0032A800E045608AED7EF2DF0D9EFFB
:105BAC002DF0E2EF2DF0056C061ED8B0062A071E6C
:105BBC00D8B0072A800E0856000E011A000E021AE1
:105BCC00000E031A800E041A000E051A000E061A97
:105BDC00000E071A800E081A0550015C0650025878
:105BEC000750035808500458D8B0FFEF2DF001EFC0
:105BFC002EF004EF2EF0D89005EF2EF0D880120086
:105C0C0034EC2CF0C00E4FEC29F0FF0E0F6E7E0E14
:105C1C00106E42EC2AF0800E4FEC29F01550175CF8
:105C2C0016501858D8B01DEF2EF01FEF2EF027EF9E
:105C3C002EF0290E0F6E7F0E106E42EC2AF02DEF17
:105C4C002EF0360E0F6E7F0E106E42EC2AF0000E08
:105C5C00196E000E1A6E000E1B6E000E1C6E19C013
:105C6C0001F01AC002F01BC003F01CC004F0000EBF
:105C7C00056E000E066E7A0E076E440E086E84ECEE
:105C8C002DF0D8A04CEF2EF04EEF2EF050EF2EF062
:105C9C008DEF2EF015C00FF016C010F017C011F0DC
:105CAC0018C012F0E1EC2BF019C001F01AC002F090
:105CBC001BC003F01CC004F0000E056E000E066E37
:105CCC00800E076E3F0E086ECAEC34F001C019F05E
:105CDC0002C01AF003C01BF004C01CF019C001F084
:105CEC001AC002F01BC003F01CC004F0000E056EBD
:105CFC00000E066E7A0E076E440E086E84EC2DF0C4
:105D0C00D8A08BEF2EF08DEF2EF050EF2EF012006E
:105D1C00000E3D6E000E3C6E000E0E6E000E0D6EF3
:105D2C000EBEA2EF2EF00E5009E1050E0D5CD8A0B0
:105D3C00A2EF2EF0A4EF2EF0A6EF2EF007EF2FF02F
:105D4C000DC00AF0030E0A26010E0B6E000E0C6E2F
:105D5C000A2AB4EF2EF0D8900B360C360A2EB1EF7F
:105D6C002EF00BC007F00CC008F01BEC2AF0000E54
:105D7C00026E0A0E016E29EC2FF001500210D8B4FD
:105D8C00CAEF2EF0CCEF2EF0DFEF2EF00DC00AF0A4
:105D9C00010E0B6E000E0C6E0A2AD8EF2EF0D89066
:105DAC000B360C360A2ED5EF2EF00B503C120C5045
:105DBC003D12000E026E090E016E29EC2FF00150FF
:105DCC000210D8B4ECEF2EF0EEEF2EF003EF2FF024
:105DDC000DC00AF0050E0A26010E0B6E000E0C6E9D
:105DEC000A2AFCEF2EF0D8900B360C360A2EF9EF5F
:105DFC002EF00B503C120C503D120D4A0E2A96EF11
:105E0C002EF03C503A1807E13D503B18D8A411EF46
:105E1C002FF013EF2FF016EF2FF045061CEF2FF09D
:105E2C00010E456E3CC03AF03DC03BF04550D8A445
:105E3C0022EF2FF024EF2FF028EF2FF03AC03EF096
:105E4C003BC03FF0120002BE37EF2FF0025007E1CB
:105E5C00080E015CD8B035EF2FF037EF2FF04BEF79
:105E6C002FF001C003F0010E046E032A40EF2FF057
:105E7C00D8900436032E3EEF2FF004508014056E9C
:105E8C000550016E026ADDEF2FF002BE59EF2FF0C4
:105E9C00025007E1100E015CD8B057EF2FF059EF0C
:105EAC002FF06FEF2FF001C003F0F80E0326010E58
:105EBC00046E032A64EF2FF0D8900436032E62EFA1
:105ECC002FF004508114056E0550016E026ADDEF4F
:105EDC002FF002BE7DEF2FF0025007E1180E015C8F
:105EEC00D8B07BEF2FF07DEF2FF093EF2FF001C0A8
:105EFC0003F0F00E0326010E046E032A88EF2FF038
:105F0C00D8900436032E86EF2FF004508214056EC1
:105F1C000550016E026ADDEF2FF002BEA1EF2FF0EB
:105F2C00025007E1200E015CD8B09FEF2FF0A1EFDB
:105F3C002FF0B7EF2FF001C003F0E80E0326010E8F
:105F4C00046E032AACEF2FF0D8900436032EAAEF80
:105F5C002FF004508314056E0550016E026ADDEFBC
:105F6C002FF002BEC5EF2FF0025007E1280E015CA6
:105F7C00D8B0C3EF2FF0C5EF2FF0DBEF2FF001C03F
:105F8C0003F0E00E0326010E046E032AD0EF2FF06F
:105F9C00D8900436032ECEEF2FF004508414056EE7
:105FAC000550016E026ADDEF2FF0016802681200E5
:105FBC00000E026E180E016E000E046E000E036EC3
:105FCC007CEC32F0000E026E190E016E000E046EA7
:105FDC00000E036E7CEC32F0000E026E1A0E016E97
:105FEC00000E046E000E036E7CEC32F0000E026E9E
:105FFC001B0E016E000E046E000E036E7CEC32F074
:10600C00000E086E000E076E1BEC2AF076EF30F0D7
:10601C00BB0E4324F66EF76A7D0EF7220800F5508E
:10602C00076E086A1BEC2AF0000E026E180E016E49
:10603C00000E046E010E036E7CEC32F0010E446E09
:10604C0093EF30F0BB0E4224F66EF76A7D0EF7220A
:10605C000800F550076E086A1BEC2AF0000E026E61
:10606C00190E016E000E046E010E036E7CEC32F004
:10607C00020E446E93EF30F0BB0E4124F66EF76ABD
:10608C007D0EF7220800F550076E086A1BEC2AF00B
:10609C00000E026E1A0E016E000E046E010E036EDF
:1060AC007CEC32F0030E446E93EF30F0BB0E4024C8
:1060BC00F66EF76A7D0EF7220800F550076E086A37
:1060CC001BEC2AF0000E026E1B0E016E000E046E0D
:1060DC00010E036E7CEC32F0000E446E93EF30F048
:1060EC0044500A6E0B6A0B50000AD8B480EF30F0A3
:1060FC0072EF30F00A50000AD8B40EEF30F0010AFB
:10610C00D8B428EF30F0030AD8B442EF30F0010ACB
:10611C00D8B45CEF30F072EF30F01200000E176E56
:10612C00000E166E000E1D6E000E1E6E000E1F6E03
:10613C00000E206E1DC001F01EC002F01FC003F047
:10614C0020C004F0000E056E400E066E9C0E076E0D
:10615C00450E086E84EC2DF0D8A0B7EF30F0B9EFF7
:10616C0030F0BBEF30F056EF31F08EEC2EF03FEC10
:10617C0029F001C019F002C01AF01650191809E1E3
:10618C0017501A18D8B4CDEF30F0CFEF30F009EF2C
:10619C0031F0000E1C6E050E1B6E1BC013F0010EB1
:1061AC00146E000E156E132ADFEF30F0D8901436F3
:1061BC001536132EDCEF30F0195014161A50151634
:1061CC0014501510D8B4EDEF30F0EFEF30F0FCEFC9
:1061DC0030F05DEC2BF0186E8EEC2EF0000E1D6E78
:1061EC00400E1E6E9C0E1F6E450E206E1B4A1C2A06
:1061FC001C5009E10A0E1B5CD8A007EF31F009EF27
:10620C0031F0D3EF30F01DC001F01EC002F01FC002
:10621C0003F020C004F0000E056E000E066E800E1A
:10622C00076E3F0E086ECAEC34F001C01DF002C0C0
:10623C001EF003C01FF004C020F01DC001F01EC0F2
:10624C0002F01FC003F020C004F0000E056E400EDB
:10625C00066E9C0E076E450E086E84EC2DF0D8A0D1
:10626C003AEF31F03CEF31F0BBEF30F056EF31F05C
:10627C00000E126E030E116E73EF31F0000E126EE3
:10628C00010E116E73EF31F0000E126E630E116E73
:10629C0073EF31F0000E126E070E116E73EF31F0CA
:1062AC001850136E146A1450000AD8B460EF31F011
:1062BC0073EF31F01350410AD8B450EF31F0030AA8
:1062CC00D8B44AEF31F01A0AD8B43EEF31F0010AD3
:1062DC00D8B444EF31F073EF31F01200186E18504F
:1062EC0099EC2BF0196E155099EC2BF01A6E34ECCE
:1062FC002CF0800E4FEC29F0F60E0F6E7F0E106E08
:10630C0042EC2AF019505EEC29F0A30E0F6E7F0EB2
:10631C00106E42EC2AF01A505EEC29F01A50191843
:10632C00D8A49BEF31F09DEF31F0A9EF31F0C00E06
:10633C004FEC29F0EE0E0F6E7F0E106E42EC2AF031
:10634C00300E7BEF32F0C00E4FEC29F05AEF32F0EA
:10635C00540E1A18D8B4B5EF31F0B7EF31F0C0EFD6
:10636C0031F04C0E1A18D8A4BEEF31F0C0EF31F05A
:10637C00C9EF31F0C40E0F6E7F0E106E42EC2AF096
:10638C00310E7BEF32F0CF0E0F6E7F0E106E42ECA3
:10639C002AF0320E7BEF32F0500E1A18D8B4D9EF27
:1063AC0031F0DBEF31F0E4EF31F0530E1A18D8A4D2
:1063BC00E2EF31F0E4EF31F0ECEF31F0C40E0F6EA0
:1063CC007F0E106E42EC2AF0C6EF31F0CF0E0F6E3E
:1063DC007F0E106E42EC2AF0CFEF31F0700E1A18CF
:1063EC00D8B4FBEF31F0FDEF31F006EF32F04C0E8C
:1063FC001A18D8A404EF32F006EF32F00EEF32F098
:10640C00C40E0F6E7F0E106E42EC2AF0C6EF31F008
:10641C00CF0E0F6E7F0E106E42EC2AF0CFEF31F0E4
:10642C00500E1A18D8B41DEF32F01FEF32F028EFCF
:10643C0032F0540E1A18D8A426EF32F028EF32F0AE
:10644C0030EF32F0C40E0F6E7F0E106E42EC2AF05D
:10645C00C6EF31F0CF0E0F6E7F0E106E42EC2AF0AD
:10646C00CFEF31F0700E1A18D8B43FEF32F041EF85
:10647C0032F04AEF32F0530E1A18D8A448EF32F02B
:10648C004AEF32F052EF32F0C40E0F6E7F0E106EE8
:10649C0042EC2AF0C6EF31F0CF0E0F6E7F0E106E6D
:1064AC0042EC2AF0CFEF31F01950166E176A1750E4
:1064BC00000AD8B464EF32F07BEF32F016504C0A7D
:1064CC00D8B438EF32F01C0AD8B4AEEF31F0030A6E
:1064DC00D8B416EF32F0070AD8B4F4EF31F0240A2E
:1064EC00D8B4D2EF31F07BEF32F0120002BE8AEF5B
:1064FC0032F0025007E1080E015CD8B088EF32F0A0
:10650C008AEF32F0B4EF32F003500410D8B491EFAC
:10651C0032F093EF32F0A3EF32F001C005F0010E30
:10652C00066E052A9CEF32F0D8900636052E9AEFAF
:10653C0032F006508012A2EF33F001C005F0010ECC
:10654C00066E052AACEF32F0D8900636052EAAEF6F
:10655C0032F00650FF0A8016A2EF33F002BEC2EFF3
:10656C0032F0025007E1100E015CD8B0C0EF32F0EF
:10657C00C2EF32F0F0EF32F0F80E0126FF0E0222DD
:10658C0003500410D8B4CDEF32F0CFEF32F0DFEF80
:10659C0032F001C005F0010E066E052AD8EF32F07C
:1065AC00D8900636052ED6EF32F006508112A2EFA7
:1065BC0033F001C005F0010E066E052AE8EF32F04B
:1065CC00D8900636052EE6EF32F00650FF0A8116FB
:1065DC00A2EF33F002BEFEEF32F0025007E1180ECC
:1065EC00015CD8B0FCEF32F0FEEF32F02CEF33F060
:1065FC00F00E0126FF0E022203500410D8B409EF4E
:10660C0033F00BEF33F01BEF33F001C005F0010E4C
:10661C00066E052A14EF33F0D8900636052E12EFCD
:10662C0033F006508212A2EF33F001C005F0010ED8
:10663C00066E052A24EF33F0D8900636052E22EF8D
:10664C0033F00650FF0A8216A2EF33F002BE3AEF87
:10665C0033F0025007E1200E015CD8B038EF33F074
:10666C003AEF33F068EF33F0E80E0126FF0E02220A
:10667C0003500410D8B445EF33F047EF33F057EF25
:10668C0033F001C005F0010E066E052A50EF33F011
:10669C00D8900636052E4EEF33F006508312A2EF3B
:1066AC0033F001C005F0010E066E052A60EF33F0E1
:1066BC00D8900636052E5EEF33F00650FF0A83168F
:1066CC00A2EF33F002BE76EF33F0025007E1280E52
:1066DC00015CD8B074EF33F076EF33F0A2EF33F007
:1066EC00E00E0126FF0E022203500410D8B481EFF5
:1066FC0033F083EF33F093EF33F001C005F0010E6C
:10670C00066E052A8CEF33F0D8900636052E8AEFEC
:10671C0033F006508412A2EF33F001C005F0010EE5
:10672C00066E052A9CEF33F0D8900636052E9AEFAC
:10673C0033F00650FF0A8416120002BEB1EF33F09C
:10674C00025007E1080E015CD8B0AFEF33F0B1EFA7
:10675C0033F0DBEF33F003500410D8B4B8EF33F060
:10676C00BAEF33F0CAEF33F001C005F0010E066E3C
:10677C00052AC3EF33F0D8900636052EC1EF33F05F
:10678C0006509212C9EF34F001C005F0010E066EEE
:10679C00052AD3EF33F0D8900636052ED1EF33F01F
:1067AC000650FF0A9216C9EF34F002BEE9EF33F03F
:1067BC00025007E1100E015CD8B0E7EF33F0E9EFBF
:1067CC0033F017EF34F003500410D8B4F0EF33F07B
:1067DC00F2EF33F004EF34F001C005F0F80E0526AB
:1067EC00010E066E052AFDEF33F0D8900636052E05
:1067FC00FBEF33F006509312C9EF34F001C005F0F3
:10680C00F80E0526010E066E052A0FEF34F0D8900F
:10681C000636052E0DEF34F00650FF0A9316C9EF1D
:10682C0034F002BE25EF34F0025007E1180E015C83
:10683C00D8B023EF34F025EF34F053EF34F003509D
:10684C000410D8B42CEF34F02EEF34F040EF34F0C9
:10685C0001C005F0F00E0526010E066E052A39EF73
:10686C0034F0D8900636052E37EF34F006509412DB
:10687C00C9EF34F001C005F0F00E0526010E066ECE
:10688C00052A4BEF34F0D8900636052E49EF34F03C
:10689C000650FF0A9416C9EF34F002BE61EF34F0D3
:1068AC00025007E1200E015CD8B05FEF34F061EFCD
:1068BC0034F08FEF34F003500410D8B468EF34F098
:1068CC006AEF34F07CEF34F001C005F0E80E0526D9
:1068DC00010E066E052A75EF34F0D8900636052E9B
:1068EC0073EF34F006509512C9EF34F001C005F087
:1068FC00E80E0526010E066E052A87EF34F0D890B7
:10690C000636052E85EF34F00650FF0A9516C9EFB2
:10691C0034F002BE9DEF34F0025007E1280E015C0A
:10692C00D8B09BEF34F09DEF34F0C9EF34F0035046
:10693C000410D8B4A4EF34F0A6EF34F0B8EF34F070
:10694C0001C005F0E00E0526010E066E052AB1EF1A
:10695C0034F0D8900636052EAFEF34F00650961270
:10696C00C9EF34F001C005F0E00E0526010E066EED
:10697C00052AC3EF34F0D8900636052EC1EF34F05B
:10698C000650FF0A961612000450800B0D6E045030
:10699C0004240F6E03AED5EF34F0D7EF34F0D8EFFC
:1069AC0034F00F800F50D8B4DEEF34F0E0EF34F059
:1069BC00F5EF34F00F28D8A4E6EF34F0E8EF34F01C
:1069CC00F0EF34F0000E016E000E026E000E036E3E
:1069DC00000E046E038E000E046EFDEF34F0000EFC
:1069EC00016E000E026E000E036E000E046E085057
:1069FC00800B0E6E0D500E18D8B407EF35F009EF62
:106A0C0035F00AEF35F00D8C085008240E6E07AEE9
:106A1C0012EF35F014EF35F015EF35F00E800E5007
:106A2C00D8B41BEF35F01DEF35F032EF35F00E28F2
:106A3C00D8A423EF35F025EF35F02DEF35F0000E0F
:106A4C00056E000E066E000E076E000E086E078EA9
:106A5C00000E086E3AEF35F0000E056E000E066E55
:106A6C00000E076E000E086E0F500E5CD8B041EF92
:106A7C0035F043EF35F06AEF35F00DAC48EF35F0FB
:106A8C004AEF35F04CEF35F0800E0D1A0FC010F0B8
:106A9C000EC00FF010C00EF001C010F005C001F0D8
:106AAC0010C005F002C010F006C002F010C006F0D5
:106ABC0003C010F007C003F010C007F004C010F0C2
:106ACC0008C004F010C008F0000E106E0F500EC07D
:106ADC0009F00A6A095E000E0A5A0ABE7FEF35F009
:106AEC000A5009E11A0E095CD8A07FEF35F081EF4E
:106AFC0035F0B8EF35F00150021003100410D8A493
:106B0C008AEF35F08DEF35F0010E8EEF35F0000E7B
:106B1C00106E000E016E000E026E000E036E000E63
:106B2C00046E0EC00FF0C1EF35F010A0A0EF35F0E1
:106B3C00A2EF35F0A8EF35F0D89010300109106EA7
:106B4C00AAEF35F0D890103201A0AFEF35F0B1EFCD
:106B5C0035F0B2EF35F0108E0434043203320232C9
:106B6C0001320F2A0E500F5CD8A0BFEF35F0C1EFE9
:106B7C0035F09BEF35F00DBCC6EF35F0C8EF35F0B6
:106B8C0008EF36F00F50D8A4CEEF35F0D0EF35F03B
:106B9C00DAEF35F0000E016E000E026E000E036E81
:106BAC00000E046E29EF37F0055001260650022224
:106BBC00075003220850042204A0E7EF35F0E9EF58
:106BCC0035F095EF36F010A0EEEF35F0F0EF35F034
:106BDC00F6EF35F0D89010300109106EF8EF35F063
:106BEC00D890103201A0FDEF35F0FFEF35F000EF3B
:106BFC0036F0108E043404320332023201320F2A82
:106C0C0095EF36F00550015C0650025807500358BA
:106C1C000450800A096E0850800A0958D8B019EF40
:106C2C0036F01BEF36F046EF36F00150055C096E7E
:106C3C00025006580A6E035007580B6E0450085841
:106C4C000C6EFF0E0924016EFF0E0A20026EFF0E61
:106C5C000B20036EFF0E0C20046E800E0D1A106CB0
:106C6C001050D8A43CEF36F03EEF36F04EEF36F035
:106C7C00010E0126000E0222032204224EEF36F0F2
:106C8C000550015E0650025A0750035A0850045A28
:106C9C000150021003100410D8A457EF36F059EF2E
:106CAC0036F08EEF36F01050D8A45FEF36F061EF6F
:106CBC0036F08EEF36F0000E016E000E026E000EF6
:106CCC00036E000E046E29EF37F0D89001360236B1
:106CDC000336043610AE75EF36F077EF36F078EFFA
:106CEC0036F0018010A07DEF36F07FEF36F083EFA9
:106CFC0036F0D880103685EF36F0D89010360F501D
:106D0C00D8B48BEF36F08DEF36F08EEF36F00F06F1
:106D1C0003AE93EF36F095EF36F06BEF36F0000ED6
:106D2C000E6E10AE9CEF36F09EEF36F0B6EF36F0EE
:106D3C0010C009F07F0E0916D8B4A7EF36F0A9EFF2
:106D4C0036F0ADEF36F0010E0E6EB6EF36F001A058
:106D5C00B2EF36F0B4EF36F0B6EF36F0A9EF36F00E
:106D6C000E50D8B4BCEF36F0BEEF36F0E9EF36F08B
:106D7C00010E0126000E02220322042204A0C9EFF8
:106D8C0036F0CBEF36F0E9EF36F001C009F002C077
:106D9C000AF003C00BF004C00CF00C340C320B32B4
:106DAC000A32093209C001F00AC002F00BC003F02C
:106DBC000CC004F00F28D8B4E6EF36F0E8EF36F04C
:106DCC00E9EF36F00F2A0F28D8B4EFEF36F0F1EFD9
:106DDC0036F0F9EF36F00F50D8A4F7EF36F0F9EFA4
:106DEC0036F00BEF37F0000E016E000E026E000E47
:106DFC00036E000E046E0F50D8A407EF37F009EFA6
:106E0C0037F00BEF37F0000E0D6E0FA010EF37F0D0
:106E1C0012EF37F015EF37F0038E16EF37F0039EB5
:106E2C00D8900F30046E0DAE1EEF37F020EF37F018
:106E3C0021EF37F0048E01C001F002C002F003C054
:106E4C0003F004C004F01200000E246E000E256E38
:106E5C00000E2E6E000E2D6E000E296E000E286E8A
:106E6C00000E2B6E000E2A6E000E316E000E306E70
:106E7C0034EC2CF0C2EC29F06DEC2AF0000E956E7F
:106E8C0080EC3AF094EC30F011C026F012C027F0F0
:106E9C0034EC2CF0E50E0F6E7F0E106E42EC2AF0E7
:106EAC00C00E4FEC29F0AE0E0F6E7F0E106E42EC42
:106EBC002AF026C008F027C009F0000E0B6E640EF5
:106ECC000A6EF1EC2AF00850300F5EEC29F0000E3F
:106EDC00366E000E376E000E386E000E396E36C0F0
:106EEC0001F037C002F038C003F039C004F0000ED6
:106EFC00056E400E066E9C0E076E450E086E84ECF9
:106F0C002DF0D8A08CEF37F08EEF37F090EF37F0F4
:106F1C00C3EF37F036C001F037C002F038C003F0D1
:106F2C0039C004F0000E056E000E066E800E076E62
:106F3C003F0E086ECAEC34F001C036F002C037F0D8
:106F4C0003C038F004C039F036C001F037C002F08D
:106F5C0038C003F039C004F0000E056E400E066E0A
:106F6C009C0E076E450E086E84EC2DF0D8A0C1EF78
:106F7C0037F0C3EF37F090EF37F0000E836E59EF18
:106F8C003AF034EC2CF0000E2E6E000E2D6E8EECC2
:106F9C002CF0000E366E000E376E000E386E000EA2
:106FAC00396E36C001F037C002F038C003F039C07A
:106FBC0004F0000E056E400E066E9C0E076E450E1C
:106FCC00086E84EC2DF0D8A0EEEF37F0F0EF37F030
:106FDC00F2EF37F059EF3AF08EEC2EF03FEC29F04F
:106FEC0001C032F002C033F02D50321809E12E509E
:106FFC003318D8B404EF38F006EF38F048EF38F017
:10700C00000E356E000E346E34C021F0010E226E6F
:10701C00000E236E212A16EF38F0D8902236233634
:10702C00212E13EF38F032502216335023162250F3
:10703C002310D8B424EF38F026EF38F03BEF38F0BB
:10704C005DEC2BF0246E34EC2CF0E30E0F6E7E0E08
:10705C00106E42EC2AF0000E366E700E376E940EE7
:10706C00386E450E396E010E2F6E344A352A355066
:10707C0009E1050E345CD8A046EF38F048EF38F043
:10708C000AEF38F036C001F037C002F038C003F018
:10709C0039C004F0000E056E000E066E800E076EF1
:1070AC003F0E086ECAEC34F001C036F002C037F067
:1070BC0003C038F004C039F036C001F037C002F01C
:1070CC0038C003F039C004F0000E056E400E066E99
:1070DC009C0E076E450E086E84EC2DF0D8A079EF4F
:1070EC0038F07BEF38F0F2EF37F059EF3AF034EC40
:1070FC002CF0000E2E6E000E2D6E09EC2DF0000EF5
:10710C00366E000E376E000E386E000E396E36C0BD
:10711C0001F037C002F038C003F039C004F0000EA3
:10712C00056E400E066E9C0E076E450E086E84ECC6
:10713C002DF0D8A0A4EF38F0A6EF38F0A8EF38F077
:10714C0059EF3AF08EEC2EF03FEC29F001C032F002
:10715C0002C033F02D50321809E12E503318D8B438
:10716C00BAEF38F0BCEF38F0FEEF38F0000E356EA9
:10717C00050E346E34C021F0010E226E000E236E0B
:10718C00212ACCEF38F0D89022362336212EC9EFA5
:10719C0038F0325022163350231622502310D8B414
:1071AC00DAEF38F0DCEF38F0F1EF38F05DEC2BF083
:1071BC00256E34EC2CF0F10E0F6E7E0E106E42EC40
:1071CC002AF0000E366E700E376E940E386E450E29
:1071DC00396E020E2F6E344A352A355009E10A0EEB
:1071EC00345CD8A0FCEF38F0FEEF38F0C0EF38F08C
:1071FC0036C001F037C002F038C003F039C004F0DB
:10720C00000E056E000E066E800E076E3F0E086EA9
:10721C00CAEC34F001C036F002C037F003C038F0CD
:10722C0004C039F036C001F037C002F038C003F0AA
:10723C0039C004F0000E056E400E066E9C0E076EF3
:10724C00450E086E84EC2DF0D8A02FEF39F031EFFD
:10725C0039F0A8EF38F059EF3AF025C015F024506A
:10726C0074EC31F02C6E310E2C18D8A440EF39F0A0
:10727C0042EF39F046EF39F0284A292A51EF39F01C
:10728C00320E2C18D8A44DEF39F04FEF39F051EFE6
:10729C0039F02A4A2B2A000E366E000E376E000E7D
:1072AC00386E000E396E36C001F037C002F038C0AF
:1072BC0003F039C004F0000E056EC00E066EDA0E37
:1072CC00076E450E086E84EC2DF0D8A070EF39F0E7
:1072DC0072EF39F074EF39F0A7EF39F036C001F0E6
:1072EC0037C002F038C003F039C004F0000E056E50
:1072FC00000E066E800E076E3F0E086ECAEC34F060
:10730C0001C036F002C037F003C038F004C039F0C9
:10731C0036C001F037C002F038C003F039C004F0B9
:10732C00000E056EC00E066EDA0E076E450E086E68
:10733C0084EC2DF0D8A0A5EF39F0A7EF39F074EF5D
:10734C0039F0030E2F6E59EF3AF0304A312A34ECF3
:10735C002CF0D40E0F6E7E0E106E42EC2AF030C064
:10736C0008F031C009F0000E0B6E640E0A6EF1ECE1
:10737C002AF00850300F5EEC29F0FB0E0F6E7F0EDA
:10738C00106E42EC2AF0C00E4FEC29F0DA0E0F6EA4
:10739C007F0E106E42EC2AF0000E366E000E376E29
:1073AC00000E386E000E396E36C001F037C002F098
:1073BC0038C003F039C004F0000E056E000E066EE6
:1073CC00FA0E076E430E086E84EC2DF0D8A0F1EF88
:1073DC0039F0F3EF39F0F5EF39F032EF3AF028C02D
:1073EC000FF029C010F02AC011F02BC012F0E1EC04
:1073FC002BF036C001F037C002F038C003F039C0B2
:10740C0004F0000E056E000E066E800E076E3F0E29
:10741C00086ECAEC34F001C036F002C037F003C07D
:10742C0038F004C039F036C001F037C002F038C073
:10743C0003F039C004F0000E056E000E066EFA0E55
:10744C00076E430E086E84EC2DF0D8A030EF3AF0A6
:10745C0032EF3AF0F5EF39F0040E2F6E59EF3AF0A7
:10746C0030C083FF050E2F6E59EF3AF02650305C7A
:10747C0027503158D8A045EF3AF047EF3AF053EF88
:10748C003AF028C015F029C016F02AC017F02BC00E
:10749C0018F006EC2EF059EF3AF0060E2F6E59EF5D
:1074AC003AF0000E2F6E2F50216E226A2250000AE5
:1074BC00D8B463EF3AF057EF3AF02150000AD8B441
:1074CC00C7EF37F0010AD8B47DEF38F0030AD8B40F
:1074DC0033EF39F0010AD8B4ABEF39F0070AD8B45E
:1074EC0036EF3AF0010AD8B43CEF3AF057EF3AF0E5
:1074FC0000EF00F0800E4FEC29F0B90E0F6E7F0EEE
:10750C00106E42EC2AF0C00E4FEC29F0810E0F6E7B
:10751C007F0E106E42EC2AF0000E156E000E166EE9
:10752C00000E176E000E186E15C001F016C002F09A
:10753C0017C003F018C004F0000E056E400E066E66
:10754C009C0E076E450E086E84EC2DF0D8A0B1EFA2
:10755C003AF0B3EF3AF0B5EF3AF0E8EF3AF015C085
:10756C0001F016C002F017C003F018C004F0000EB2
:10757C00056E000E066E800E076E3F0E086ECAEC8E
:10758C0034F001C015F002C016F003C017F004C0AF
:10759C0018F015C001F016C002F017C003F018C0A7
:1075AC0004F0000E056E400E066E9C0E076E450E26
:1075BC00086E84EC2DF0D8A0E6EF3AF0E8EF3AF044
:1075CC00B5EF3AF0800E4FEC29F08D0E0F6E7F0E5A
:1075DC00106E42EC2AF0C00E4FEC29F0190E0F6E13
:1075EC007E0E106E42EC2AF0000E156E000E166E1A
:1075FC00000E176E000E186E15C001F016C002F0CA
:10760C0017C003F018C004F0000E056EC00E066E15
:10761C00DA0E076E450E086E84EC2DF0D8A019EF2B
:10762C003BF01BEF3BF01DEF3BF050EF3BF015C078
:10763C0001F016C002F017C003F018C004F0000EE1
:10764C00056E000E066E800E076E3F0E086ECAECBD
:10765C0034F001C015F002C016F003C017F004C0DE
:10766C0018F015C001F016C002F017C003F018C0D6
:10767C0004F0000E056EC00E066EDA0E076E450E97
:10768C00086E84EC2DF0D8A04EEF3BF050EF3BF0A1
:10769C001DEF3BF0C00E4FEC29F0B20E0F6E7E0EBC
:1076AC00106E42EC2AF0000E156E000E166E000ED7
:1076BC00176E000E186E15C001F016C002F017C040
:1076CC0003F018C004F0000E056EC00E066EDA0E44
:1076DC00076E450E086E84EC2DF0D8A078EF3BF0C9
:1076EC007AEF3BF07CEF3BF0AFEF3BF015C001F0D5
:1076FC0016C002F017C003F018C004F0000E056E9F
:10770C00000E066E800E076E3F0E086ECAEC34F04B
:10771C0001C015F002C016F003C017F004C018F039
:10772C0015C001F016C002F017C003F018C004F029
:10773C00000E056EC00E066EDA0E076E450E086E54
:10774C0084EC2DF0D8A0ADEF3BF0AFEF3BF07CEF2D
:10775C003BF0800E4FEC29F0980E0F6E7F0E106EE2
:10776C0042EC2AF0C00E4FEC29F03B0E0F6E7E0E51
:10777C00106E42EC2AF0000E156E000E166E000E06
:10778C00176E000E186E15C001F016C002F017C06F
:10779C0003F018C004F0000E056EC00E066EDA0E73
:1077AC00076E450E086E84EC2DF0D8A0E0EF3BF090
:1077BC00E2EF3BF0E4EF3BF017EF3CF015C001F0CB
:1077CC0016C002F017C003F018C004F0000E056ECE
:1077DC00000E066E800E076E3F0E086ECAEC34F07B
:1077EC0001C015F002C016F003C017F004C018F069
:1077FC0015C001F016C002F017C003F018C004F059
:10780C00000E056EC00E066EDA0E076E450E086E83
:10781C0084EC2DF0D8A015EF3CF017EF3CF0E4EF22
:10782C003BF0C00E4FEC29F07F0E0F6E7E0E106EEB
:10783C0042EC2AF0000E156E000E166E000E176E3E
:10784C00000E186E15C001F016C002F017C003F040
:10785C0018C004F0000E056EC00E066EDA0E076E30
:10786C00450E086E84EC2DF0D8A03FEF3CF041EFB4
:10787C003CF043EF3CF076EF3CF015C001F016C045
:10788C0002F017C003F018C004F0000E056E000ED5
:10789C00066E800E076E3F0E086ECAEC34F001C007
:1078AC0015F002C016F003C017F004C018F015C094
:1078BC0001F016C002F017C003F018C004F0000E5F
:1078CC00056EC00E066EDA0E076E450E086E84EC61
:1078DC002DF0D8A074EF3CF076EF3CF043EF3CF089
:1078EC00800E4FEC29F0500E0F6E7F0E106E42EC96
:1078FC002AF0C00E4FEC29F02A0E0F6E7E0E106E81
:10790C0042EC2AF0000E156E000E166E000E176E6D
:10791C00000E186E15C001F016C002F017C003F06F
:10792C0018C004F0000E056EC00E066EDA0E076E5F
:10793C00450E086E84EC2DF0D8A0A7EF3CF0A9EF13
:10794C003CF0ABEF3CF0DEEF3CF015C001F016C0A4
:10795C0002F017C003F018C004F0000E056E000E04
:10796C00066E800E076E3F0E086ECAEC34F001C036
:10797C0015F002C016F003C017F004C018F015C0C3
:10798C0001F016C002F017C003F018C004F0000E8E
:10799C00056EC00E066EDA0E076E450E086E84EC90
:1079AC002DF0D8A0DCEF3CF0DEEF3CF0ABEF3CF080
:1079BC00C00E4FEC29F0A10E0F6E7E0E106E42EC35
:1079CC002AF0000E156E000E166E000E176E000ECD
:1079DC00186E15C001F016C002F017C003F018C0E5
:1079EC0004F0000E056EC00E066EDA0E076E450E24
:1079FC00086E84EC2DF0D8A006EF3DF008EF3DF0BA
:107A0C000AEF3DF03DEF3DF015C001F016C002F05D
:107A1C0017C003F018C004F0000E056E000E066EC1
:107A2C00800E076E3F0E086ECAEC34F001C015F0E4
:107A3C0002C016F003C017F004C018F015C001F016
:107A4C0016C002F017C003F018C004F0000E056E4B
:107A5C00C00E066EDA0E076E450E086E84EC2DF025
:107A6C00D8A03BEF3DF03DEF3DF00AEF3DF0800E2E
:107A7C004FEC29F05D0E0F6E7F0E106E42EC2AF06B
:107A8C00C00E4FEC29F05D0E0F6E7E0E106E42ECA8
:107A9C002AF0000E156E000E166E000E176E000EFC
:107AAC00186E15C001F016C002F017C003F018C014
:107ABC0004F0000E056EC00E066EDA0E076E450E53
:107ACC00086E84EC2DF0D8A06EEF3DF070EF3DF019
:107ADC0072EF3DF0A5EF3DF015C001F016C002F0BD
:107AEC0017C003F018C004F0000E056E000E066EF1
:107AFC00800E076E3F0E086ECAEC34F001C015F014
:107B0C0002C016F003C017F004C018F015C001F045
:107B1C0016C002F017C003F018C004F0000E056E7A
:107B2C00C00E066EDA0E076E450E086E84EC2DF054
:107B3C00D8A0A3EF3DF0A5EF3DF072EF3DF0C00EE5
:107B4C004FEC29F0900E0F6E7E0E106E42EC2AF068
:107B5C00000E156E000E166E000E176E000E186ECF
:107B6C0015C001F016C002F017C003F018C004F0E5
:107B7C00000E056EC00E066EDA0E076E450E086E10
:107B8C0084EC2DF0D8A0CDEF3DF0CFEF3DF0D1EF50
:107B9C003DF004EF3EF015C001F016C002F017C026
:107BAC0003F018C004F0000E056E000E066E800E79
:107BBC00076E3F0E086ECAEC34F001C015F002C01F
:107BCC0016F003C017F004C018F015C001F016C071
:107BDC0002F017C003F018C004F0000E056EC00EC2
:107BEC00066EDA0E076E450E086E84EC2DF0D8A0EA
:107BFC0002EF3EF004EF3EF0D1EF3DF0800E4FEC83
:107C0C0029F0430E0F6E7F0E106E42EC2AF0C00E60
:107C1C004FEC29F04C0E0F6E7E0E106E42EC2AF0DB
:107C2C00000E156E000E166E000E176E000E186EFE
:107C3C0015C001F016C002F017C003F018C004F014
:107C4C00000E056EC00E066EDA0E076E450E086E3F
:107C5C0084EC2DF0D8A035EF3EF037EF3EF039EF45
:107C6C003EF06CEF3EF015C001F016C002F017C0EC
:107C7C0003F018C004F0000E056E000E066E800EA8
:107C8C00076E3F0E086ECAEC34F001C015F002C04E
:107C9C0016F003C017F004C018F015C001F016C0A0
:107CAC0002F017C003F018C004F0000E056EC00EF1
:107CBC00066EDA0E076E450E086E84EC2DF0D8A019
:107CCC006AEF3EF06CEF3EF039EF3EF0C00E4FEC39
:107CDC0029F0C30E0F6E7E0E106E42EC2AF0000ED1
:107CEC00156E000E166E000E176E000E186E15C077
:107CFC0001F016C002F017C003F018C004F0000E1B
:107D0C00056EC00E066EDA0E076E450E086E84EC1C
:107D1C002DF0D8A094EF3EF096EF3EF098EF3EF0A9
:107D2C00CBEF3EF015C001F016C002F017C003F007
:107D3C0018C004F0000E056E000E066E800E076E65
:107D4C003F0E086ECAEC34F001C015F002C016F0FC
:107D5C0003C017F004C018F015C001F016C002F0F3
:107D6C0017C003F018C004F0000E056EC00E066EAE
:107D7C00DA0E076E450E086E84EC2DF0D8A0C9EF14
:107D8C003EF0CBEF3EF098EF3EF034EC2CF0080ECA
:107D9C000F6E7E0E106E42EC2AF0C00E4FEC29F0E6
:107DAC006E0E0F6E7E0E106E42EC2AF01200003F2B
:107DBC00065B4F666D7D077F6F777C395E797155F9
:107DCC004C44525358414259734573636F6C68610C
:107DDC003A2020202020202020004A6F6761646F09
:107DEC0072203120202020202020004A6F676164FF
:107DFC006F72203220202020202020004E756D2E06
:107E0C00206465206A6F676F733A20200056656E98
:107E1C00636520646520542065204C202000566545
:107E2C006E636520646520702065204C2020005610
:107E3C00656E63652064652050206520532020000A
:107E4C0056656E6365206465207020652053202084
:107E5C000056656E636520646520502065205420B3
:107E6C002000593D317C583D337C413D377C423DAF
:107E7C00393900506572646520706172612054203C
:107E8C0065204C00506572646520706172612070D1
:107E9C002065204C00506572646520706172612011
:107EAC0050206520530050657264652070617261CA
:107EBC0020702065205300506572646520706172DB
:107ECC006120502065205400506C61636172202841
:107EDC004A6F676F3A20004A31206573636F6C6894
:107EEC0069646F21004A32206573636F6C68696442
:107EFC006F2100506C616361722046696E616C3A4F
:107F0C0000593D502C20583D702C20413D54004CC4
:107F1C003D502C20553D702C20523D54004A3120B0
:107F2C0056656E636575212020004A322056656EB9
:107F3C00636575212020004C61676172746F284C59
:107F4C00293A20005465736F7572612854293A20C0
:107F5C000053706F636B2853293A202000443D4C2A
:107F6C00206F7520533D532000423D4C206F7520EF
:107F7C00733D532000436F6D6F206A6F6761723AD7
:107F8C000050656472612850293A20005061706578
:107F9C006C2870293A200020207C7C20204A323A20
:107FAC0020004D656C686F72206465200042656D21
:107FBC002D76696E646F21004A312076656E63659B
:107FCC007521004A322076656E63657521005B4A27
:107FDC00315D785B4A325D3A00506172746964615C
:107FEC003A00456D7061746521004A313A200029D0
:037FFC0020000062
:020000040020DA
:08000000FFFFFFFFFFFFFFFF00
:020000040030CA
:0E000000FF027100FF8380FF0FC00FE00F4072
:00000001FF
